:0400000007EF00F016
:100008000B8292ED00F0AAEF00F0000E936EF60E50
:10001800D36E000E956E9690969271EC00F0C0EC3F
:1000280000F0F18CF292F288F28C010EC26E0D0E85
:10003800C16E880EC06E060ED56EC20ED76EF70E54
:10004800D66EF294F28AD58EF28E9494F90ECB6E17
:10005800000EBE6E000ECA6E0C0EBD6E000ECC6E8B
:10006800CA84948C948E200EAC6E900EAB6E0C0EDF
:10007800AF6EFFD7086E23D0270E076EF50EE82E59
:10008800FED7072EFCD700F01200030E076E980E5D
:10009800E82EFED7072EFCD7B60E00D000D0E82EEB
:1000A800FCD700D000D000D01200420EE82EFED7B8
:1000B80000D012001A0EE82EFED700D01200085009
:1000C800010AD8B4D9D7030AD8B4DFD7010AD8B4FB
:1000D800ECD7070AD8A41200EDD78D903F0E8C6E8E
:1000E800CAEC00F0010E3EEC00F03F0E8C6ECAEC3C
:1000F80000F0030E3EEC00F03F0E8C6ECAEC00F0F0
:10010800040E3EEC00F0C0EC00F00F0ED1EC00F055
:10011800CAEC00F0040E3EEC00F012000600F2A457
:100128000ED0F294C20ED76EF70ED66E034A042A8A
:10013800140E03180410D8A402D00300FFD7F2A2AB
:1001480003D0F2920300FFD70B921100AA0EF66EAD
:10015800010EF76E000EF86E0900F5CF0AF0066A78
:10016800056A046A036A026A016A0B900B92000E20
:10017800F86E000109EF00F08D90010ED1EC00F04F
:10018800CAEC00F0020E3EEC00F012008D821A0E4E
:10019800E82EFED700D08D921200096E09C08CFFA0
:0301A8001200083A
:020000040020DA
:08000000FFFFFFFFFFFFFFFF00
:020000040030CA
:0E00000000051F1FFF8385FF0FC00FE00F409C
:00000001FF
