:0400000007EF00F016
:0A0008003382FEED05F0AFEF08F0C3
:100800000020202020202020202020202020202008
:1008100020004269656E76656E69646F0050617391
:1008200073776F72643A0054656D703A0048756D65
:030830003A00008B
:1008340011C008F012C009F0000E0B6E0A0E0A6E09
:100844004AEC09F013500824176E14500920186E4E
:1008540032C01BF01C6A000E1A6E430E196E8FEC28
:1008640009F03ED032C01BF01C6A000E1A6E430E13
:1008740035D0110E32241B6E1C6A010E1C22000E90
:100884001A6E4B0E2BD03250090DF3CF08F0F4CF73
:1008940009F0000E0B6E050E0A6E32EC07F0EC0E3A
:1008A40008241B6E010E09201C6E000E1A6E520ED7
:1008B40015D03250090DF3CF08F0F4CF09F0000E33
:1008C4000B6E050E0A6E32EC07F0200E08241B6E28
:1008D400000E09201C6E000E1A6E460E196E15D0FD
:1008E40017C015F018C016F01650000AD8A40DD081
:1008F4001550000AD8B4B6D7010AD8B4BAD70B0A2F
:10090400D8B4C1D7010AD8B4D4D7540EADEC09F089
:10091400650EADEC09F06D0EADEC09F0700EADECAA
:1009240009F03A0EADEC09F0200EADEC09F0270EFB
:100934000D6E03EC08F01BC008F01CC009F0000E9B
:100944000B6E640E0A6EDAEC07F008500910D8B486
:100954002AD01BC008F01CC009F0000E0B6E640EF8
:100964000A6EDAEC07F00850300FADEC09F01BC04A
:1009740008F01CC009F0000E0B6E640E0A6EDAEC6F
:1009840007F00850300F79EC09F01BC008F01CC0C8
:1009940009F0000E0B6E640E0A6E70EC08F008C0CD
:1009A4001BF009C01CF01BC008F01CC009F0000EAD
:1009B4000B6E0A0E0A6EDAEC07F00850300FADEC3D
:1009C40009F01BC008F01CC009F0000E0B6E0A0EE3
:1009D4000A6E70EC08F00850300FADEC09F0A70E69
:1009E400ADEC09F01950ADEC09F0200EADEC09F0B6
:1009F4000A0EADEC09F0480EADEC09F0750EADEC45
:100A040009F06D0EADEC09F03A0EADEC09F0200ED4
:100A1400ADEC09F00A0E086E3150CCEC08F0300F42
:100A2400ADEC09F00A0E086E315035EC09F0300FC8
:100A3400ADEC09F0200EADEC09F0250EADEC09F09B
:100A44000A0EADEC09F0200EADEC09F01BC008F065
:100A54001CC009F0000E0B6E0A0E0A6EDAEC07F0E9
:100A64000850300F79EC09F01BC008F01CC009F0E5
:100A7400000E0B6E0A0E0A6E70EC08F00850300F70
:100A840079EC09F0195079EC09F0C00E6EEC09F01C
:100A94002D0E0D6E03EC08F00A0E086E3150CCECEE
:100AA40008F0300F79EC09F00A0E086E315035EC7D
:100AB40009F0300F79EC09F0250E79EC09F01200F9
:100AC400000E946EF60ED36E000E956E969096946C
:100AD4009692E4EC06F08FEC09F0010EC26E0C0E57
:100AE400C16E880EC06EF00E936EF19EF290F28687
:100AF400030ED56EF294FD0ED76E8F0ED66EF28A6B
:100B0400F28ED58E9494F90ECB6E000EBE6E000E4E
:100B1400CA6E0C0EBD6E000ECC6ECA84948C948E7C
:100B2400200EAC6E900EAB6E0C0EAF6E0B0E1E6EE6
:100B3400260E1D6E5E0EE82EFED71D2EFCD71E2E31
:100B4400FAD78FEC09F0230E0D6E000E91EC08F02D
:100B5400820E6EEC09F0000E79EC09F0120E0D6EA7
:100B640003EC08F0000E79EC09F0C70E6EEC09F006
:100B7400100E1E6E390E1D6E0E0EE82EFED71D2EA3
:100B8400FCD71E2EFAD7800E6EEC09F0010E0D6E06
:100B940003EC08F0800E6EEC09F01D0E0D6E03ECF4
:100BA40008F007D0C10E6EEC09F0010E0D6E03ECD7
:100BB40008F0060E2F18D8A4F5D7800E6EEC09F0B5
:100BC400010E0D6E03EC08F0060E1E6E130E1D6E64
:100BD400AE0EE82EFED71D2EFCD71E2EFAD7E9EC5A
:100BE40008F0000E126E000E116E000E146E000E50
:100BF400136E1AEC04F0E8D70600F2A419D0F294AC
:100C0400FD0ED76E8F0ED66E2D4A2E2A200E2D186D
:100C140006E14E0E2E18D8A402D00300FFD784A2FA
:100C240007D082BA02D0828A01D0829A0300FFD709
:100C3400F2A063D0F00E8118D8B453D0000E306EF9
:100C4400FE0E8A6E81B802D0100E41D081BA02D055
:100C54000C0E3DD081BC02D0080E39D081BE02D02A
:100C6400040E35D0FD0E8A6E81B802D00F0E2FD03F
:100C740081BA02D00B0E2BD081BC02D0070E27D034
:100C840081BE02D0030E23D0FB0E8A6E81B802D03F
:100C94000E0E1DD081BA02D00A0E19D081BC02D02A
:100CA400060E15D081BE02D0020E11D0F70E8A6E48
:100CB40081B802D00D0E0BD081BA02D0090E07D034
:100CC40081BC02D0050E03D081BE02D0010E306E6D
:100CD400F00E8A6E30C02FF081EC06F0305084ECB8
:100CE40009F0F290040E076E0C0E066E340EE82E18
:100CF400FED7062EFCD7072EFAD73392110030D038
:100D0400310E306E1200320E306E1200330E306E21
:100D140012002B0E306E1200340E306E1200350E9F
:100D2400306E1200360E306E12002D0E306E120030
:100D3400370E306E1200380E306E1200390E306EDF
:100D44001200580E306E1200420E306E1200300E39
:100D5400306E12003D0E306E12002F0E306E1200F7
:100D64003050010AD8B4CCD7030AD8B4CCD7010A7E
:100D7400D8B4CCD7070AD8B4CCD7010AD8B4CCD7C6
:100D8400030AD8B4CCD7010AD8B4CCD70F0AD8B444
:100D9400CCD7010AD8B4CCD7030AD8B4CCD7010A2B
:100DA400D8B4CCD7070AD8B4CCD7010AD8B4CCD796
:100DB400030AD8B4CCD7010AD8B4CCD71F0AD8A414
:100DC4001200CBD78D90040E2218D8A404D08C50D6
:100DD4000F0B300901D03F0E8C6E99EC09F0010E17
:100DE40074EC07F0040E2218D8A404D08C500F0B16
:100DF400300901D03F0E8C6E99EC09F0030E74ECAF
:100E040007F0040E2218D8A404D08C500F0B30091C
:100E140001D03F0E8C6E99EC09F0040E74EC07F0CF
:100E2400040E2218D8A411D08C500F0B20098C6EFC
:100E340099EC09F0040E74EC07F02F0E2AEC08F07C
:100E440099EC09F0040E74EC07F08FEC09F00F0E26
:100E54002AEC08F099EC09F0040E74EC07F0120087
:100E6400000E0D6E0BAE06D00A6C0B1ED8B00B2A0A
:100E7400010E0D6E09AE06D0086C091ED8B0092A01
:100E8400010E0D1A000E0F6E000E0E6E0A500B109E
:100E9400D8B41CD0010E0C6E04D0D8900A360B3690
:100EA4000C2A0BAEFAD7D8900E360F360A50085CCF
:100EB4000B500958D8A005D00A50085E0B50095AA7
:100EC4000E80D8900B320A320C2EEDD70D50D8B4C8
:100ED40004D00E6C0F1ED8B00F2A0EC008F00FC03D
:100EE40009F01200096E23D0270E086EF50EE82EC5
:100EF400FED7082EFCD700F01200030E086E980EE1
:100F0400E82EFED7082EFCD7B60E00D000D0E82E6F
:100F1400FCD700D000D000D01200420EE82EFED73D
:100F240000D012001A0EE82EFED700D0120009508D
:100F3400010AD8B4D9D7030AD8B4DFD7010AD8B480
:100F4400ECD7070AD8A41200EDD7026E23D0270EDF
:100F5400016EF50EE82EFED7012EFCD700F012002C
:100F6400030E016E980EE82EFED7012EFCD7B60EA6
:100F740000D000D0E82EFCD700D000D000D0120062
:100F8400420EE82EFED700D012001A0EE82EFED72D
:100F940000D012000250010AD8B4D9D7030AD8B439
:100FA400DFD7010AD8B4ECD7070AD8A41200EDD7CA
:100FB400000E0D6E000E0C6E0A500B10D8B41CD02F
:100FC400010E0E6E04D0D8900A360B360E2A0BAEE4
:100FD400FAD7D8900C360D360A50085C0B500958D5
:100FE400D8A005D00A50085E0B50095A0C80D8903E
:100FF4000B320A320E2EEDD70CC008F00DC009F0EA
:101004001200000E106E000E0F6E0D500F240E6EA7
:101014000EC0F6FF080EF76E0800F5500009D8B4AC
:1010240012000D500F240E6E0EC0F6FF080EF76E60
:101034000800F55079EC09F00F4A102A10BEE5D7E4
:10104400105005E1100E0F5CD8B01200DED712006C
:101054000B6E040E2218D8A417D00BC00AF0F00EA1
:101064000A168C500F0B0A108C6E99EC09F0010EC5
:1010740074EC07F00BC00AF00A3AF00E0A168C5012
:101084000F0B0A108C6E1200080E2218D8A412003E
:101094000BC08CFF1200046E040E2218D8A417D0C3
:1010A40004C003F0F00E03168C500F0B03108C6E6B
:1010B400A0EC09F0010EA7EC07F004C003F0033A1A
:1010C400F00E03168C500F0B03108C6E1200080EDA
:1010D4002218D8A4120004C08CFF12000A500B106E
:1010E400D8B418D0010E0C6E04D0D8900A360B3642
:1010F4000C2A0BAEFAD70A50085C0B500958D8A03A
:1011040004D00A50085E0B50095AD8900B320A32A8
:101114000C2EF1D708C008F009C009F012000E6EB9
:101124000E50080DF350400F1EEC09F0000E106E27
:10113400000E0F6E0D500F24D96EDA6ADF5079EC71
:1011440009F00F4A102A10BEF5D7105005E1080E19
:101154000F5CD8B01200EED712004E0EF66E130ECE
:10116400F76E000EF86E00EE1FF010EE0CF00900A2
:10117400F5CFEEFFE550E150FAE100EE2BF0080E5A
:10118400EE6AE806FDE133903392000EF86E00013A
:1011940062EF05F0096E000E0B6E0850D8B415D03E
:1011A400010E0A6E03D0D89008360A2A08AEFBD77F
:1011B400D8900B360850095CD8A003D00850095EBB
:1011C4000B80D89008320A2EF3D70B50120094905B
:1011D4002F0E0C6EC00EE82EFED70C2EFCD794807A
:1011E40082B0FED7500EE82EFED782B0FED75DEC5B
:1011F40009F0316E5DEC09F05DEC09F0326E5DECE6
:1012040009F05DEC09F01200000E086E82A0FED712
:10121400080EE82EFED700D082A002D0000E086E81
:101224000E0EE82EFED700D082A004D0010E086E68
:1012340082B0FED708501200096E8D9009C08CFF51
:101244008D84030EE82EFED700F08D94030EE82E55
:10125400FED700F0060E086E300EE82EFED7082EDC
:10126400FCD700D01200096E080E0A6E000E0B6E39
:10127400D89009340B340B6ED890093608500B5CA7
:10128400D8A002D008500B5E0A2EF2D70B501200E1
:1012940008500A02F3CF0CF0F4CF0DF008500B0203
:1012A400F3500D2609500A02F3500D260CC008F025
:1012B4000DC009F01200000E0A6E080E0B6E06EC4B
:1012C40009F0096E0A500A2409100A6E0B060B5025
:1012D400D8A4F5D70A5012000C6E8D900C502AEC4D
:1012E40008F099EC09F0040E74EC07F012000C6E8F
:1012F4008D800C502AEC08F099EC09F0040E74EC83
:1013040007F01200056E8D8005504DEC08F0A0EC3E
:1013140009F0040EA7EC07F012008D90010E2AECE0
:1013240008F099EC09F0020E74EC07F012008D84B9
:101334001A0EE82EFED700D08D9412008D841A0E5A
:10134400E82EFED700D08D94120040420608000A11
:101354000A0A001F0E00086EACA2FED708C0ADFF3B
:02136400120075
:020000040020DA
:08000000FFFFFFFFFFFFFFFF00
:020000040030CA
:0E00000000051F1EFF8181FF0FC00FE00F40A3
:00000001FF
