:0400000007EF00F016
:0A0008003E827FED06F0F6EF09F0EE
:100800000020202020202020202020202020202008
:1008100020202020202020004269656E76656E69C8
:10082000646F00496E636F72726563746F0050612C
:100830007373776F72643A0054656D703A0048754F
:100840006D3A000011C008F012C009F0000E0B6EE6
:100850000A0E0A6E91EC0AF013500824176E145019
:100860000920186E39C01BF01C6A000E1A6E430E68
:10087000196EB5EC0AF03ED039C01BF01C6A000EB0
:100880001A6E430E35D0110E39241B6E1C6A010EF0
:100890001C22000E1A6E4B0E2BD03950090DF3CFCF
:1008A00008F0F4CF09F0000E0B6E050E0A6E3DEC59
:1008B00008F0EC0E08241B6E010E09201C6E000EC1
:1008C0001A6E520E15D03950090DF3CF08F0F4CF3F
:1008D00009F0000E0B6E050E0A6E3DEC08F0200EBE
:1008E00008241B6E000E09201C6E000E1A6E460EA8
:1008F000196E15D017C015F018C016F01650000A62
:10090000D8A40DD01550000AD8B4B6D7010AD8B46F
:10091000BAD70B0AD8B4C1D7010AD8B4D4D7540E69
:10092000F9EC0AF0650EF9EC0AF06D0EF9EC0AF03C
:10093000700EF9EC0AF03A0EF9EC0AF0200EF9EC20
:100940000AF0380E0D6E4AEC09F01BC008F01CC00E
:1009500009F0000E0B6E640E0A6E21EC09F00850CF
:100960000910D8B42AD01BC008F01CC009F0000E32
:100970000B6E640E0A6E21EC09F00850300FF9EC92
:100980000AF01BC008F01CC009F0000E0B6E640ECC
:100990000A6E21EC09F00850300FC2EC0AF01BC0BF
:1009A00008F01CC009F0000E0B6E640E0A6EB7EC66
:1009B00009F008C01BF009C01CF01BC008F01CC0E7
:1009C00009F0000E0B6E0A0E0A6E21EC09F00850B9
:1009D000300FF9EC0AF01BC008F01CC009F0000E43
:1009E0000B6E0A0E0A6EB7EC09F00850300FF9ECE6
:1009F0000AF0A70EF9EC0AF01950F9EC0AF0200EF3
:100A0000F9EC0AF00A0EF9EC0AF0480EF9EC0AF0DB
:100A1000750EF9EC0AF06D0EF9EC0AF03A0EF9ECED
:100A20000AF0200EF9EC0AF00A0E086E385013ECAA
:100A30000AF0300FF9EC0AF00A0E086E38507CEC20
:100A40000AF0300FF9EC0AF0200EF9EC0AF0250E4E
:100A5000F9EC0AF00A0EF9EC0AF0200EF9EC0AF0B3
:100A60001BC008F01CC009F0000E0B6E0A0E0A6EC7
:100A700021EC09F00850300FC2EC0AF01BC008F05E
:100A80001CC009F0000E0B6E0A0E0A6EB7EC09F0DE
:100A90000850300FC2EC0AF01950C2EC0AF0C00E38
:100AA000CDEC0AF03E0E0D6E4AEC09F00A0E086E0F
:100AB000385013EC0AF0300FC2EC0AF00A0E086E40
:100AC00038507CEC0AF0300FC2EC0AF0250EC2EC74
:100AD0000AF01200000E946EF60ED36E000E956EA4
:100AE000968096949692EFEC07F0B5EC0AF0020E21
:100AF000926E010EC26E0C0EC16E880EC06EF00EAC
:100B0000936EF19EF290F286030ED56EF294FB0E78
:100B1000D76E1E0ED66EF28AD58E94947D0ECB6E55
:100B2000000EBE6E020ECA6E0C0EBD6E000ECC6EB6
:100B3000CA84948C948E200EAC6E900EAB6E0C0E0C
:100B4000AF6E94806F866D969492EC0ECF6E780E99
:100B5000CE6EB00ECD6EEC0EBC6EF50EBB6E090EF9
:100B6000BA6E9E909D80F28CCD80F28E0B0E1E6E22
:100B7000260E1D6E5E0EE82EFED71D2EFCD71E2EF5
:100B8000FAD7B5EC0AF0290E0D6E000ED8EC09F07C
:100B9000820ECDEC0AF0000EC2EC0AF0180E0D6EBB
:100BA0004AEC09F0000EC2EC0AF0C70ECDEC0AF0D8
:100BB000100E1E6E390E1D6E0E0EE82EFED71D2E67
:100BC000FCD71E2EFAD7800ECDEC0AF0070E0D6E64
:100BD0004AEC09F0800ECDEC0AF02E0E0D6E4AECB8
:100BE00009F05BD0000E346E010E336E000E206EE5
:100BF000000E1F6E31503210D8B4FCD7000E326E8A
:100C0000000E316E1F503A0FD96EDA6A37C0DFFF1F
:100C10001F4A202A20BEEED7205004E1040E1F5C9C
:100C2000D8A0E8D7000E346E000E336E3A0E0D6E6B
:100C30007FEC08F00D500E10D8B416D0010E0D6EDA
:100C40004AEC09F0C10ECDEC0AF0000EC2EC0AF03D
:100C50000B0E1E6E260E1D6E5E0EE82EFED71D2E8E
:100C6000FCD71E2EFAD719D0C10ECDEC0AF0230EF8
:100C70000D6E4AEC09F00B0E1E6E260E1D6E5E0EFA
:100C8000E82EFED71D2EFCD71E2EFAD7C10ECDECB6
:100C90000AF0010E0D6E4AEC09F03A0E0D6E7FEC73
:100CA00008F00D500E10D8B49DD7B5EC0AF0060E22
:100CB0001E6E130E1D6EAE0EE82EFED71D2EFCD737
:100CC0001E2EFAD7060E1E6E130E1D6EAE0EE82EE9
:100CD000FED71D2EFCD71E2EFAD730EC0AF0000EE0
:100CE000126E000E116E000E146E000E136E22ECCA
:100CF00004F039C008F0096A0EEC07F0E3D70600EB
:100D0000F2A418D0F294FB0ED76E1E0ED66E84A0FD
:100D100011D0000EBD6E8294030E076E080E066E93
:100D2000770EE82EFED7062EFCD7072EFAD700F056
:100D30000300FFD7F2A061D0F00E8118D8B455D0CF
:100D400033043410D8A451D0000E376EFE0E8A6ED4
:100D500081B802D0100E41D081BA02D00C0E3DD025
:100D600081BC02D0080E39D081BE02D0040E35D02D
:100D7000FD0E8A6E81B802D00F0E2FD081BA02D03C
:100D80000B0E2BD081BC02D0070E27D081BE02D023
:100D9000030E23D0FB0E8A6E81B802D00E0E1DD03A
:100DA00081BA02D00A0E19D081BC02D0060E15D02D
:100DB00081BE02D0020E11D0F70E8A6E81B802D029
:100DC0000D0E0BD081BA02D0090E07D081BC02D023
:100DD000050E03D081BE02D0010E376EF00E8A6E72
:100DE00088EC07F03750D8EC0AF0F290820E066ECD
:100DF000DE0EE82EFED7062EFCD79EA00DD09E90CC
:100E0000EC0ECF6E780ECE6E780E2524BB6EEC0EF7
:100E10002620BC6E090EBA6E3E921100095008E100
:100E2000170E085CD8B004D0000EBD6E829412007C
:100E3000095004E1170E085CD8A00BD0095009E155
:100E4000190E085CD8B005D00C0EBD6E130EBE6E28
:100E50001200095004E1190E085CD8A00BD009500B
:100E600009E11C0E085CD8B005D00C0EBD6E260E34
:100E7000BE6E1200095004E11C0E085CD8A00BD015
:100E8000095009E11F0E085CD8B005D00C0EBD6EEC
:100E9000390EBE6E1200095004E11F0E085CD8A086
:100EA0000BD0095009E1220E085CD8B005D00C0E19
:100EB000BD6E4C0EBE6E1200095004E1220E085C9D
:100EC000D8A00BD0095009E1250E085CD8B005D098
:100ED0000C0EBD6E5F0EBE6E1200095004E1250EB1
:100EE000085CD8A00BD0095009E1280E085CD8B0E6
:100EF00005D00C0EBD6E710EBE6E1200095004E1DD
:100F0000280E085CD8A01200000EBD6E828412006C
:100F1000000E326E010E316E30D0310E376E12007F
:100F2000320E376E1200330E376E12002B0E376EF4
:100F30001200340E376E1200350E376E1200360E68
:100F4000376E12002D0E376E1200370E376E1200FC
:100F5000380E376E1200390E376E1200580E376E8B
:100F60001200420E376E1200300E376E12003D0E28
:100F7000376E12002F0E376E12003750010AD8B4A8
:100F8000CCD7030AD8B4CCD7010AD8B4CCD7070A37
:100F9000D8B4CCD7010AD8B4CCD7030AD8B4CCD7AC
:100FA000010AD8B4CCD70F0AD8B4CCD7010AD8B428
:100FB000CCD7030AD8B4CCD7010AD8B4CCD7070A07
:100FC000D8B4CCD7010AD8B4CCD7030AD8B4CCD77C
:100FD000010AD8B4CCD71F0AD8A41200CBD78D925F
:100FE000040E2818D8A404D08C500F0B300901D05F
:100FF0003F0E8C6EEBEC0AF0010EBBEC08F0040E19
:101000002818D8A404D08C500F0B300901D03F0E03
:101010008C6EEBEC0AF0030EBBEC08F0040E281803
:10102000D8A404D08C500F0B300901D03F0E8C6E29
:10103000EBEC0AF0040EBBEC08F0040E2818D8A460
:1010400011D08C500F0B20098C6EEBEC0AF0040EC3
:10105000BBEC08F02F0E71EC09F0EBEC0AF0040E7B
:10106000BBEC08F0B5EC0AF00F0E71EC09F0EBECFC
:101070000AF0040EBBEC08F01200000E0D6E0BAE71
:1010800006D00A6C0B1ED8B00B2A010E0D6E09AEED
:1010900006D0086C091ED8B0092A010E0D1A000EE0
:1010A0000F6E000E0E6E0A500B10D8B41CD0010E3D
:1010B0000C6E04D0D8900A360B360C2A0BAEFAD739
:1010C000D8900E360F360A50085C0B500958D8A03D
:1010D00005D00A50085E0B50095A0E80D8900B328A
:1010E0000A320C2EEDD70D50D8B404D00E6C0F1E62
:1010F000D8B00F2A0EC008F00FC009F0120021C0AE
:1011000011F022C012F023C013F024C014F0000E1E
:10111000166E000E156EC10ECDEC0AF0000E186EA4
:10112000000E176E2A0EC2EC0AF01750110FD96E7E
:10113000DA6A0D501724E16EE26ADE50E618D8A490
:1011400002D0154A162A174A182A18BEEBD718508B
:1011500004E1040E175CD8A0E5D7C10ECDEC0AF06F
:10116000040E15181610D8A402D0010E01D0000EDE
:101170000D6E0E6A1200096E23D0270E086EF50E52
:10118000E82EFED7082EFCD700F01200030E086EE2
:10119000980EE82EFED7082EFCD7B60E00D000D051
:1011A000E82EFCD700D000D000D01200420EE82E6E
:1011B000FED700D012001A0EE82EFED700D0120083
:1011C0000950010AD8B4D9D7030AD8B4DFD7010A25
:1011D000D8B4ECD7070AD8A41200EDD7026E23D0FA
:1011E000270E016EF50EE82EFED7012EFCD700F07B
:1011F0001200030E016E980EE82EFED7012EFCD7CA
:10120000B60E00D000D0E82EFCD700D000D000D021
:101210001200420EE82EFED700D012001A0EE82E61
:10122000FED700D012000250010AD8B4D9D7030A61
:10123000D8B4DFD7010AD8B4ECD7070AD8A4120073
:10124000EDD7000E0D6E000E0C6E0A500B10D8B4C8
:101250001CD0010E0E6E04D0D8900A360B360E2A22
:101260000BAEFAD7D8900C360D360A50085C0B50EE
:101270000958D8A005D00A50085E0B50095A0C80B6
:10128000D8900B320A320E2EEDD70CC008F00DC0EC
:1012900009F01200000E106E000E0F6E0D500F249C
:1012A0000E6E0EC0F6FF080EF76E0800F55000092E
:1012B000D8B412000D500F240E6E0EC0F6FF080EAB
:1012C000F76E0800F550C2EC0AF00F4A102A10BE63
:1012D000E5D7105005E1100E0F5CD8B01200DED734
:1012E00012000B6E040E2818D8A417D00BC00AF0F9
:1012F000F00E0A168C500F0B0A108C6EEBEC0AF0F5
:10130000010EBBEC08F00BC00AF00A3AF00E0A1608
:101310008C500F0B0A108C6E1200080E2818D8A4DF
:1013200012000BC08CFF1200046E040E2818D8A403
:1013300017D004C003F0F00E03168C500F0B0310EF
:101340008C6EF2EC0AF0010EEEEC08F004C003F033
:10135000033AF00E03168C500F0B03108C6E120024
:10136000080E2818D8A4120004C08CFF12000A50DE
:101370000B10D8B418D0010E0C6E04D0D8900A36D9
:101380000B360C2A0BAEFAD70A50085C0B500958E2
:10139000D8A004D00A50085E0B50095AD8900B32DE
:1013A0000A320C2EF1D708C008F009C009F012006B
:1013B0000E6E0E50080DF350400F65EC0AF0000E53
:1013C000106E000E0F6E0D500F24D96EDA6ADF50CA
:1013D000C2EC0AF00F4A102A10BEF5D7105005E1F2
:1013E000080E0F5CD8B01200EED71200C60EF66ED3
:1013F000150EF76E000EF86E00EE21F010EE10F0F4
:101400000900F5CFEEFFE550E150FAE100EE31F0D2
:101410000D0EEE6AE806FDE13E903E92000EF86E7B
:1014200000016AEF05F0096E000E0B6E0850D8B48B
:1014300015D0010E0A6E03D0D89008360A2A08AEDD
:10144000FBD7D8900B360850095CD8A003D00850C1
:10145000095E0B80D89008320A2EF3D70B50120089
:1014600094902F0E0C6EC00EE82EFED70C2EFCD7DB
:10147000948082B0FED7500EE82EFED782B0FED701
:10148000A4EC0AF0386EA4EC0AF0A4EC0AF0396E71
:10149000A4EC0AF0A4EC0AF01200000E086E82A080
:1014A000FED7080EE82EFED700D082A002D0000E94
:1014B000086E0E0EE82EFED700D082A004D0010EDA
:1014C000086E82B0FED708501200096E8D9209C0D6
:1014D0008CFF8D84030EE82EFED700F08D94030E52
:1014E000E82EFED700F0060E086E300EE82EFED76E
:1014F000082EFCD700D01200096E080E0A6E000EEE
:101500000B6ED89009340B340B6ED8900936085006
:101510000B5CD8A002D008500B5E0A2EF2D70B50FD
:10152000120008500A02F3CF0CF0F4CF0DF008506F
:101530000B02F3500D2609500A02F3500D260CC081
:1015400008F00DC009F01200000E0A6E080E0B6EB6
:101550004DEC0AF0096E0A500A2409100A6E0B06B7
:101560000B50D8A4F5D70A5012008D92010E71ECE1
:1015700009F0EBEC0AF0020EBBEC08F0800ECDECAB
:101580000AF012000C6E8D820C5071EC09F0EBEC3D
:101590000AF0040EBBEC08F012000C6E8D920C5099
:1015A00071EC09F0EBEC0AF0040EBBEC08F0120051
:1015B000056E8D82055094EC09F0F2EC0AF0040EF1
:1015C000EEEC08F01200303132337D000608000ADC
:1015D0000A0A001F0E008D841A0EE82EFED700D0D6
:1015E0008D9412008D841A0EE82EFED700D08D94B3
:0E15F0001200086EACA2FED708C0ADFF1200BC
:020000040020DA
:08000000FFFFFFFFFFFFFFFF00
:020000040030CA
:0E00000000091F1EFF8181FF0FC00FE00F409F
:00000001FF
