:0400000007EF00F016
:0A000800318230ED06F0C4EF09F07C
:100800000020202020202020202020202020202008
:1008100020004269656E76656E69646F0050617391
:1008200073776F72643A0054656D703A0048756D65
:030830003A00008B
:1008340011C008F012C009F0000E0B6E0A0E0A6E09
:100844005FEC0AF013500824176E14500920186E38
:1008540030C01BF01C6A000E1A6E430E196EA4EC15
:100864000AF03ED030C01BF01C6A000E1A6E430E14
:1008740035D0110E30241B6E1C6A010E1C22000E92
:100884001A6E4B0E2BD03050090DF3CF08F0F4CF75
:1008940009F0000E0B6E050E0A6E47EC08F0EC0E24
:1008A40008241B6E010E09201C6E000E1A6E520ED7
:1008B40015D03050090DF3CF08F0F4CF09F0000E35
:1008C4000B6E050E0A6E47EC08F0200E08241B6E12
:1008D400000E09201C6E000E1A6E460E196E15D0FD
:1008E40017C015F018C016F01650000AD8A40DD081
:1008F4001550000AD8B4B6D7010AD8B4BAD70B0A2F
:10090400D8B4C1D7010AD8B4D4D7540ECCEC0AF069
:10091400650ECCEC0AF06D0ECCEC0AF0700ECCEC4B
:100924000AF03A0ECCEC0AF0200ECCEC0AF0270EBA
:100934000D6E18EC09F01BC008F01CC009F0000E85
:100944000B6E640E0A6EEFEC08F008500910D8B470
:100954002AD01BC008F01CC009F0000E0B6E640EF8
:100964000A6EEFEC08F00850300FCCEC0AF01BC014
:1009740008F01CC009F0000E0B6E640E0A6EEFEC5A
:1009840008F00850300F8EEC0AF01BC008F01CC0B1
:1009940009F0000E0B6E640E0A6E85EC09F008C0B7
:1009A4001BF009C01CF01BC008F01CC009F0000EAD
:1009B4000B6E0A0E0A6EEFEC08F00850300FCCEC08
:1009C4000AF01BC008F01CC009F0000E0B6E0A0EE2
:1009D4000A6E85EC09F00850300FCCEC0AF0A70E33
:1009E400CCEC0AF01950CCEC0AF0200ECCEC0AF056
:1009F4000A0ECCEC0AF0480ECCEC0AF0750ECCECE6
:100A04000AF06D0ECCEC0AF03A0ECCEC0AF0200E93
:100A1400CCEC0AF00A0E086E2F50E1EC09F0300F0E
:100A2400CCEC0AF00A0E086E2F504AEC0AF0300F94
:100A3400CCEC0AF0200ECCEC0AF0250ECCEC0AF03B
:100A44000A0ECCEC0AF0200ECCEC0AF01BC008F025
:100A54001CC009F0000E0B6E0A0E0A6EEFEC08F0D3
:100A64000850300F8EEC0AF01BC008F01CC009F0CF
:100A7400000E0B6E0A0E0A6E85EC09F00850300F5A
:100A84008EEC0AF019508EEC0AF0C00E83EC0AF0DA
:100A94002D0E0D6E18EC09F00A0E086E2F50E1ECC5
:100AA40009F0300F8EEC0AF00A0E086E2F504AEC53
:100AB4000AF0300F8EEC0AF0250E8EEC0AF01200CC
:100AC400000E946EF60ED36E000E956E968096947C
:100AD4009692F9EC07F0A4EC0AF0020E926E050E61
:100AE400C26E0C0EC16E880EC06EF00E936EF19E37
:100AF400F290F286030ED56EF294FB0ED76E1E0EA4
:100B0400D66EF28AD58E94947D0ECB6E000EBE6E98
:100B1400020ECA6E0C0EBD6E000ECC6ECA84948C8E
:100B2400948E200EAC6E900EAB6E0C0EAF6E948055
:100B34006F866D969492EC0ECF6E780ECE6EB00EDC
:100B4400CD6EEC0EBC6EF50EBB6E090EBA6E9E90A9
:100B54009D80F28CCD80F28E0B0E1E6E260E1D6EC5
:100B64005E0EE82EFED71D2EFCD71E2EFAD7A4EC5F
:100B74000AF0230E0D6E000EA6EC09F0820E83EC33
:100B84000AF0000E8EEC0AF0120E0D6E18EC09F04D
:100B9400000E8EEC0AF0C70E83EC0AF0100E1E6EE7
:100BA400390E1D6E0E0EE82EFED71D2EFCD71E2EFE
:100BB400FAD7800E83EC0AF0010E0D6E18EC09F0E2
:100BC400800E83EC0AF01D0E0D6E18EC09F007D0B0
:100BD400C10E83EC0AF0010E0D6E18EC09F0060E3E
:100BE4002D18D8A4F5D7800E83EC0AF0010E0D6EF3
:100BF40018EC09F0C10E83EC0AF0010E0D6E18EC2E
:100C040009F0060E1E6E130E1D6EAE0EE82EFED7F4
:100C14001D2EFCD71E2EFAD7060E1E6E130E1D6E49
:100C2400AE0EE82EFED71D2EFCD71E2EFAD7FEECF4
:100C340009F0000E126E000E116E000E146E000EFE
:100C4400136E1AEC04F030C008F0096AC0EC06F028
:100C5400000EAEEC0AF02CEC07F0DED70600F2A48E
:100C640017D0F294FB0ED76E1E0ED66E84A010D051
:100C7400000EBD6E020E076E040E066EBA0EE82E4E
:100C8400FED7062EFCD7072EFAD700D00300FFD7D5
:100C9400F2A063D0F00E8118D8B453D0000E2E6E9B
:100CA400FE0E8A6E81B802D0100E41D081BA02D0F5
:100CB4000C0E3DD081BC02D0080E39D081BE02D0CA
:100CC400040E35D0FD0E8A6E81B802D00F0E2FD0DF
:100CD40081BA02D00B0E2BD081BC02D0070E27D0D4
:100CE40081BE02D0030E23D0FB0E8A6E81B802D0DF
:100CF4000E0E1DD081BA02D00A0E19D081BC02D0CA
:100D0400060E15D081BE02D0020E11D0F70E8A6EE7
:100D140081B802D00D0E0BD081BA02D0090E07D0D3
:100D240081BC02D0050E03D081BE02D0010E2E6E0E
:100D3400F00E8A6E2EC02DF096EC07F02E5099EC32
:100D44000AF0F290040E076E0C0E066E340EE82EB6
:100D5400FED7062EFCD7072EFAD79EA00DD09E9064
:100D6400EC0ECF6E780ECE6E780E1F24BB6EEC0E9A
:100D74002020BC6E090EBA6E31921100095007E1B1
:100D8400160E085CD8B003D0000EBE6E12000950D7
:100D940004E1160E085CD8A009D0095007E1190E29
:100DA400085CD8B003D0130EBE6E1200095004E1E3
:100DB400190E085CD8A009D0095007E11C0E085C84
:100DC400D8B003D0260EBE6E1200095004E11C0EEA
:100DD400085CD8A009D0095007E11F0E085CD8B000
:100DE40003D0390EBE6E1200095004E11F0E085CD8
:100DF400D8A009D0095007E1220E085CD8B003D06E
:100E04004C0EBE6E1200095004E1220E085CD8A0FC
:100E140009D0095007E1250E085CD8B003D05F0E55
:100E2400BE6E1200095004E1250E085CD8A009D05A
:100E3400095007E1280E085CD8B003D0710EBE6ECD
:100E44001200095004E1280E085CD8A012007E0E9E
:100E5400BE6E1200000EC35C010EC458D8B002D09E
:100E6400010E01D0000E086EC350C410D8B402D0D5
:100E7400010E01D0000E0814E8A005D0000E206E6B
:100E84007D0E1F6E1200000EC35C020EC458D8B053
:100E940002D0010E01D0000E086E000EC35C010EDC
:100EA400C458D8A002D0010E01D0000E0814E8A046
:100EB40005D0010E206E240E1F6E12007F0EC35C3F
:100EC400070EC458D8B002D0010E01D0000E086E2F
:100ED400000EC35C020EC458D8A002D0010E01D08B
:100EE400000E0814E8A005D0010E206ECA0E1F6E75
:100EF4001200FC0EC35C130EC458D8B002D0010E0D
:100F040001D0000E086E7F0EC35C070EC458D8A033
:100F140002D0010E01D0000E0814E8A01200020E47
:100F2400206E710E1F6E120030D0310E2E6E120024
:100F3400320E2E6E1200330E2E6E12002B0E2E6EFB
:100F44001200340E2E6E1200350E2E6E1200360E66
:100F54002E6E12002D0E2E6E1200370E2E6E120003
:100F6400380E2E6E1200390E2E6E1200580E2E6E92
:100F74001200420E2E6E1200300E2E6E12003D0E26
:100F84002E6E12002F0E2E6E12002E50010AD8B4AF
:100F9400CCD7030AD8B4CCD7010AD8B4CCD7070A23
:100FA400D8B4CCD7010AD8B4CCD7030AD8B4CCD798
:100FB400010AD8B4CCD70F0AD8B4CCD7010AD8B414
:100FC400CCD7030AD8B4CCD7010AD8B4CCD7070AF3
:100FD400D8B4CCD7010AD8B4CCD7030AD8B4CCD768
:100FE400010AD8B4CCD71F0AD8A41200CBD78D924B
:100FF400040E2218D8A404D08C500F0B300901D051
:101004003F0E8C6EB8EC0AF0010E89EC08F0040E69
:101014002218D8A404D08C500F0B300901D03F0EF5
:101024008C6EB8EC0AF0030E89EC08F0040E22185A
:10103400D8A404D08C500F0B300901D03F0E8C6E15
:10104400B8EC0AF0040E89EC08F0040E2218D8A4B7
:1010540011D08C500F0B20098C6EB8EC0AF0040EE2
:1010640089EC08F02F0E3FEC09F0B8EC0AF0040EFE
:1010740089EC08F0A4EC0AF00F0E3FEC09F0B8EC90
:101084000AF0040E89EC08F01200000E0D6E0BAE8F
:1010940006D00A6C0B1ED8B00B2A010E0D6E09AED9
:1010A40006D0086C091ED8B0092A010E0D1A000ECC
:1010B4000F6E000E0E6E0A500B10D8B41CD0010E29
:1010C4000C6E04D0D8900A360B360C2A0BAEFAD725
:1010D400D8900E360F360A50085C0B500958D8A029
:1010E40005D00A50085E0B50095A0E80D8900B3276
:1010F4000A320C2EEDD70D50D8B404D00E6C0F1E4E
:10110400D8B00F2A0EC008F00FC009F01200096E03
:1011140023D0270E086EF50EE82EFED7082EFCD736
:1011240000F01200030E086E980EE82EFED7082E6B
:10113400FCD7B60E00D000D0E82EFCD700D000D0EB
:1011440000D01200420EE82EFED700D012001A0E74
:10115400E82EFED700D012000950010AD8B4D9D71E
:10116400030AD8B4DFD7010AD8B4ECD7070AD8A445
:101174001200EDD7026E23D0270E016EF50EE82E75
:10118400FED7012EFCD700F01200030E016E980E5C
:10119400E82EFED7012EFCD7B60E00D000D0E82EE4
:1011A400FCD700D000D000D01200420EE82EFED7AB
:1011B40000D012001A0EE82EFED700D01200025002
:1011C400010AD8B4D9D7030AD8B4DFD7010AD8B4EE
:1011D400ECD7070AD8A41200EDD7000E0D6E000E4E
:1011E4000C6E0A500B10D8B41CD0010E0E6E04D035
:1011F400D8900A360B360E2A0BAEFAD7D8900C3696
:101204000D360A50085C0B500958D8A005D00A5076
:10121400085E0B50095A0C80D8900B320A320E2EFD
:10122400EDD70CC008F00DC009F01200000E106ECE
:10123400000E0F6E0D500F240E6E0EC0F6FF080E3A
:10124400F76E0800F5500009D8B412000D500F24B1
:101254000E6E0EC0F6FF080EF76E0800F5508EEC09
:101264000AF00F4A102A10BEE5D7105005E1100EFF
:101274000F5CD8B01200DED712000B6E040E2218D9
:10128400D8A417D00BC00AF0F00E0A168C500F0B1E
:101294000A108C6EB8EC0AF0010E89EC08F00BC051
:1012A4000AF00A3AF00E0A168C500F0B0A108C6ED4
:1012B4001200080E2218D8A412000BC08CFF1200D2
:1012C400046E040E2218D8A417D004C003F0F00E44
:1012D40003168C500F0B03108C6EBFEC0AF0010E3A
:1012E400BCEC08F004C003F0033AF00E03168C5073
:1012F4000F0B03108C6E1200080E2218D8A41200D3
:1013040004C08CFF12000A500B10D8B418D0010E80
:101314000C6E04D0D8900A360B360C2A0BAEFAD7D2
:101324000A50085C0B500958D8A004D00A50085E33
:101334000B50095AD8900B320A320C2EF1D708C040
:1013440008F009C009F012000E6E0E50080DF3509B
:10135400400F33EC0AF0000E106E000E0F6E0D50AD
:101364000F24D96EDA6ADF508EEC0AF00F4A102A85
:1013740010BEF5D7105005E1080E0F5CD8B012006E
:10138400EED712008C0EF66E150EF76E000EF86E88
:1013940000EE1FF010EE0CF00900F5CFEEFFE55063
:1013A400E150FAE1306A2F6A2E6A2D6A2C6A2B6AA0
:1013B40031903192000EF86E000162EF05F0096E73
:1013C400000E0B6E0850D8B415D0010E0A6E03D06F
:1013D400D89008360A2A08AEFBD7D8900B360850A6
:1013E400095CD8A003D00850095E0B80D89008325D
:1013F4000A2EF3D70B50120094902F0E0C6EC00ED1
:10140400E82EFED70C2EFCD7948082B0FED7500E67
:10141400E82EFED782B0FED772EC0AF02F6E72EC83
:101424000AF072EC0AF0306E72EC0AF072EC0AF018
:101434001200000E086E82A0FED7080EE82EFED71A
:1014440000D082A002D0000E086E0E0EE82EFED749
:1014540000D082A004D0010E086E82B0FED70850DE
:101464001200096E8D9209C08CFF8D84030EE82E44
:10147400FED700F08D94030EE82EFED700F0060E82
:10148400086E300EE82EFED7082EFCD700D01200CE
:10149400096E080E0A6E000E0B6ED89009340B34D8
:1014A4000B6ED890093608500B5CD8A002D00850B7
:1014B4000B5E0A2EF2D70B50120008500A02F3CF2B
:1014C4000CF0F4CF0DF008500B02F3500D26095028
:1014D4000A02F3500D260CC008F00DC009F01200EA
:1014E400000E0A6E080E0B6E1BEC0AF0096E0A5011
:1014F4000A2409100A6E0B060B50D8A4F5D70A501B
:1015040012000C6E8D920C503FEC09F0B8EC0AF00E
:10151400040E89EC08F012000C6E8D820C503FEC26
:1015240009F0B8EC0AF0040E89EC08F01200056E1C
:101534008D82055062EC09F0BFEC0AF0040EBCEC9D
:1015440008F012008D92010E3FEC09F0B8EC0AF09D
:10155400020E89EC08F01200086E0844E846FC0B01
:101564000509C26EC282C2A21200FDD78D841A0E72
:10157400E82EFED700D08D9412008D841A0EE82E2A
:10158400FED700D08D9412007D000608000A0A0AD6
:10159400001F0E00086EACA2FED708C0ADFF1200FB
:020000040020DA
:08000000FFFFFFFFFFFFFFFF00
:020000040030CA
:0E00000000091F1EFF8181FF0FC00FE00F409F
:00000001FF
