:0400000007EF00F016
:1000080009829AED00F086EF00F0066E23D0270EE5
:10001800056EF50EE82EFED7052EFCD700F012006F
:10002800030E056E980EE82EFED7052EFCD7B60EE9
:1000380000D000D0E82EFCD700D000D000D01200AD
:10004800420EE82EFED700D012001A0EE82EFED778
:1000580000D012000650010AD8B4D9D7030AD8B480
:10006800DFD7010AD8B4ECD7070AD8A41200EDD715
:10007800000E936EF60ED36E000E956E96909692C5
:1000880065EC00F0ADEC00F0060ED56EC20ED76E32
:10009800F70ED66EF294F28AD58EF28E9494F90EFB
:1000A800CB6E000EBE6E000ECA6E0C0EBD6E000E3C
:1000B800CC6ECA84948C948E200EAC6E900EAB6E6F
:1000C800FFD78D903F0E8C6EB7EC00F0010E09EC57
:1000D80000F03F0E8C6EB7EC00F0030E09EC00F058
:1000E8003F0E8C6EB7EC00F0040E09EC00F0ADEC9E
:1000F80000F00F0EBEEC00F0B7EC00F0040E09ECB7
:1001080000F01200840EF66E010EF76E000EF86E07
:100118000900F5CF08F0046A036A026A016A0990C7
:100128000992000EF86E00013CEF00F00600F2A400
:100138000ED0F294C20ED76EF70ED66E034A042A7A
:10014800140E03180410D8A402D00300FFD7099294
:1001580011008D90010EBEEC00F0B7EC00F0020E1D
:1001680009EC00F012008D821A0EE82EFED700D09E
:0D0178008D921200076E07C08CFF12000868
:020000040020DA
:08000000FFFFFFFFFFFFFFFF00
:020000040030CA
:0E00000000051F1FFF8385FF0FC00FE00F409C
:00000001FF
