:0400000007EF00F016
:0A0008004E82BFED06F014EF0BF07E
:100800000020202020202020202020202020202008
:1008100020202020202020004269656E76656E69C8
:10082000646F00496E636F72726563746F0050612C
:100830007373776F72643A0053544F5045440054B9
:10084000656D703A00447574793A00001EC010F06E
:100850001FC011F0000E136E0A0E126E7CEC0BF02E
:10086000C1EC0BF049C02CF02D6A540EF5EC0BF0E6
:10087000650EF5EC0BF06D0EF5EC0BF0700EF5EC73
:100880000BF03A0EF5EC0BF0200EF5EC0BF03F0EF2
:10089000156E41EC0AF02CC010F02DC011F0000EC6
:1008A000136E640E126E18EC0AF010501110D8B4CA
:1008B0002AD02CC010F02DC011F0000E136E640E63
:1008C000126E18EC0AF01050300FF5EC0BF02CC043
:1008D00010F02DC011F0000E136E640E126E18ECA5
:1008E0000AF01050300FABEC0BF02CC010F02DC004
:1008F00011F0000E136E640E126ED5EC0AF010C0EB
:100900002CF011C02DF02CC010F02DC011F0000EF5
:10091000136E0A0E126E18EC0AF01050300FF5EC40
:100920000BF02CC010F02DC011F0000E136E0A0E4B
:10093000126ED5EC0AF01050300FF5EC0BF0A70E4C
:10094000F5EC0BF0430EF5EC0BF0200EF5EC0BF094
:100950000A0EF5EC0BF0440EF5EC0BF0750EF5EC11
:100960000BF0740EF5EC0BF0790EF5EC0BF03A0E83
:10097000F5EC0BF0200EF5EC0BF0BD50D8B482A4D2
:1009800003D0310EF5EC0BF0BD50D8A405D0000E0D
:10099000236E300E226E20D0000E136E7E0E126E6D
:1009A000BE50640DF3CF10F0F4CF11F0FCEC08F062
:1009B00010C02AF011C02BF02AC010F02BC011F08B
:1009C000000E136E0A0E126EFCEC08F0300E1024AE
:1009D000226E000E1120236E2250F5EC0BF0BD505C
:1009E000D8A405D0000E256E300E246E1CD0000E4B
:1009F000136E7E0E126EBE50640DF3CF10F0F4CF66
:100A000011F0FCEC08F010C018F011C019F0000E45
:100A10001B6E0A0E1A6E7AEC09F0300E1824246E42
:100A2000000E1920256E2450F5EC0BF0200EF5EC8D
:100A30000BF0250EF5EC0BF00A0EF5EC0BF0200E8A
:100A4000F5EC0BF02CC010F02DC011F0000E136E61
:100A50000A0E126E18EC0AF01050300FABEC0BF0CF
:100A60002CC010F02DC011F0000E136E0A0E126E85
:100A7000D5EC0AF01050300FABEC0BF0430EABECA2
:100A80000BF0C00EA0EC0BF0450E156E41EC0AF019
:100A9000BD50D8B482A403D0310EABEC0BF0BD50E6
:100AA000D8A405D0000E276E300E266E20D0000E82
:100AB000136E7E0E126EBE50640DF3CF10F0F4CFA5
:100AC00011F0FCEC08F010C02AF011C02BF02AC085
:100AD00010F02BC011F0000E136E0A0E126EFCEC1B
:100AE00008F0300E1024266E000E1120276E2650BE
:100AF000ABEC0BF0BD50D8A405D0000E296E300E23
:100B0000286E1CD0000E136E7E0E126EBE50640D49
:100B1000F3CF10F0F4CF11F0FCEC08F010C018F097
:100B200011C019F0000E1B6E0A0E1A6E7AEC09F055
:100B3000300E1824286E000E1920296E2850ABECB8
:100B40000BF0250EABEC0BF01200000E946EF60EBF
:100B5000D36E000E956E968096949692AEEC08F049
:100B6000C1EC0BF0220E926E010EC26E0C0EC16E25
:100B7000080EC06EF00E936EF19EF290F286030E98
:100B8000D56EF294FB0ED76E1E0ED66EF28AD58EFF
:100B900094947D0ECB6E000EBE6E020ECA6E0C0ECD
:100BA000BD6E000ECC6ECA84948C948E200EAC6EFA
:100BB000900EAB6E0C0EAF6E928A6F866D9694920D
:100BC000EC0ECF6E780ECE6EB00ECD6EEC0EBC6E0F
:100BD000F50EBB6E090EBA6E9E909D80F28CCD8094
:100BE000F28E0B0E2F6E260E2E6E5E0EE82EFED7A8
:100BF0002E2EFCD72F2EFAD7C1EC0BF03A0E156E25
:100C0000000EF6EC0AF0820EA0EC0BF0000EABEC3E
:100C10000BF0180E156E41EC0AF0000EABEC0BF069
:100C2000C70EA0EC0BF0100E2F6E390E2E6E0E0EAE
:100C3000E82EFED72E2EFCD72F2EFAD7800EA0EC52
:100C40000BF0070E156E41EC0AF0800EA0EC0BF0D5
:100C50002E0E156E41EC0AF05BD0000E456E010EB3
:100C6000446E000E316E000E306E42504310D8B408
:100C7000FCD7000E436E000E426E30504A0FD96E04
:100C8000DA6A48C0DFFF304A312A31BEEED7315030
:100C900004E1040E305CD8A0E8D7000E456E000ECB
:100CA000446E4A0E156E3EEC09F015501610D8B47D
:100CB00016D0010E156E41EC0AF0C10EA0EC0BF03F
:100CC000000EABEC0BF00B0E2F6E260E2E6E5E0E92
:100CD000E82EFED72E2EFCD72F2EFAD719D0C10E14
:100CE000A0EC0BF0230E156E41EC0AF00B0E2F6EEC
:100CF000260E2E6E5E0EE82EFED72E2EFCD72F2E41
:100D0000FAD7C10EA0EC0BF0010E156E41EC0AF003
:100D10004A0E156E3EEC09F015501610D8B49DD74A
:100D2000C1EC0BF0060E2F6E130E2E6EAE0EE82EDB
:100D3000FED72E2EFCD72F2EFAD7060E2F6E130EAF
:100D40002E6EAE0EE82EFED72E2EFCD72F2EFAD703
:100D500031EC0BF0000E1F6E000E1E6E000E216EA9
:100D6000000E206E26EC04F049C010F0116A64EC0D
:100D700007F0000ECBEC0BF0DEEC07F0DED7060040
:100D8000F6CF0CF0F7CF0DF0F8CF0EF0F5CF0FF057
:100D9000F2A41ED0F294FB0ED76E1E0ED66E84A067
:100DA00017D0000EBD6E8294030E0B6E080E0A6EF5
:100DB000770EE82EFED70A2EFCD70B2EFAD700F0BE
:100DC000D5EC0BF0380E066E68EC0AF00300FFD786
:100DD000F2A061D0F00E8118D8B455D0440445106B
:100DE000D8A451D0000E486EFE0E8A6E81B802D093
:100DF000100E41D081BA02D00C0E3DD081BC02D081
:100E0000080E39D081BE02D0040E35D0FD0E8A6E98
:100E100081B802D00F0E2FD081BA02D00B0E2BD08A
:100E200081BC02D0070E27D081BE02D0030E23D092
:100E3000FB0E8A6E81B802D00E0E1DD081BA02D090
:100E40000A0E19D081BC02D0060E15D081BE02D088
:100E5000020E11D0F70E8A6E81B802D00D0E0BD0A3
:100E600081BA02D0090E07D081BC02D0050E03D092
:100E700081BE02D0010E486EF00E8A6E47EC08F07B
:100E80004850B6EC0BF0F290820E0A6EDE0EE82EA1
:100E9000FED70A2EFCD79EA00DD09E90EC0ECF6EF2
:100EA000780ECE6E780E3624BB6EEC0E3720BC6EFC
:100EB000090EBA6E0FC0F5FF0EC0F8FF0DC0F7FFA8
:100EC0000CC0F6FF4E921100115008E1170E105C95
:100ED000D8B004D0000EBD6E82941200115004E10F
:100EE000170E105CD8A00BD0115009E1190E105C40
:100EF000D8B005D00C0EBD6E130EBE6E1200115090
:100F000004E1190E105CD8A00BD0115009E11C0EA1
:100F1000105CD8B005D00C0EBD6E260EBE6E120051
:100F2000115004E11C0E105CD8A00BD0115009E147
:100F30001F0E105CD8B005D00C0EBD6E390EBE6E03
:100F40001200115004E11F0E105CD8A00BD01150FC
:100F500009E1220E105CD8B005D00C0EBD6E4C0E0F
:100F6000BE6E1200115004E1220E105CD8A00BD00E
:100F7000115009E1250E105CD8B005D00C0EBD6EE5
:100F80005F0EBE6E1200115004E1250E105CD8A059
:100F90000BD0115009E1280E105CD8B005D00C0E12
:100FA000BD6E710EBE6E1200115004E1280E105C71
:100FB000D8A01200000EBD6E82841200000EC35C29
:100FC000010EC458D8B002D0010E01D0000E106E30
:100FD000C350C410D8B402D0010E01D0000E1014BA
:100FE000E8A005D0000E376E7D0E366E1200000EA2
:100FF000C35C020EC458D8B002D0010E01D0000E5E
:10100000106E000EC35C010EC458D8A002D0010EB1
:1010100001D0000E1014E8A005D0010E376E240E8A
:10102000366E1200000EC35C030EC458D8B002D056
:10103000010E01D0000E106E000EC35C020EC458EB
:10104000D8A002D0010E01D0000E1014E8A005D0E7
:10105000010E376ECA0E366E1200C304040EC45859
:10106000D8B002D0010E01D0000E106E000EC35C8D
:10107000030EC458D8A002D0010E01D0000E1014E7
:10108000E8A01200020E376E710E366E1200000ECE
:10109000436E010E426E30D0310E486E1200320E99
:1010A000486E1200330E486E12002B0E486E12006E
:1010B000340E486E1200350E486E1200360E486E21
:1010C00012002D0E486E1200370E486E1200380EB8
:1010D000486E1200390E486E1200580E486E12000B
:1010E000420E486E1200300E486E12003D0E486EE1
:1010F00012002F0E486E12004850010AD8B4CCD707
:10110000030AD8B4CCD7010AD8B4CCD7070AD8B4CC
:10111000CCD7010AD8B4CCD7030AD8B4CCD7010AAB
:10112000D8B4CCD70F0AD8B4CCD7010AD8B4CCD70E
:10113000030AD8B4CCD7010AD8B4CCD7070AD8B49C
:10114000CCD7010AD8B4CCD7030AD8B4CCD7010A7B
:10115000D8B4CCD71F0AD8A41200CBD78D92040ED6
:101160003918D8A404D08C500F0B300901D03F0E91
:101170008C6EE7EC0BF0010EB2EC09F0040E39189E
:10118000D8A404D08C500F0B300901D03F0E8C6EC8
:10119000E7EC0BF0030EB2EC09F0040E3918D8A4FA
:1011A00004D08C500F0B300901D03F0E8C6EE7EC51
:1011B0000BF0040EB2EC09F0040E3918D8A411D0CB
:1011C0008C500F0B20098C6EE7EC0BF0040EB2EC88
:1011D00009F02F0E8FEC0AF0E7EC0BF0040EB2ECE6
:1011E00009F0C1EC0BF00F0E8FEC0AF0E7EC0BF0FE
:1011F000040EB2EC09F01200000E156E13AE06D00C
:10120000126C131ED8B0132A010E156E11AE06D043
:10121000106C111ED8B0112A010E151A000E176E8F
:10122000000E166E12501310D8B41CD0010E146E9E
:1012300004D0D89012361336142A13AEFAD7D890A9
:10124000163617361250105C13501158D8A005D01E
:101250001250105E1350115A1680D8901332123269
:10126000142EEDD71550D8B404D0166C171ED8B074
:10127000172A16C010F017C011F0120032C019F072
:1012800033C01AF034C01BF035C01CF0000E1E6EC7
:10129000000E1D6EC10EA0EC0BF0000E206E000EB5
:1012A0001F6E2A0EABEC0BF01F50190FD96EDA6AC5
:1012B00015501F24E16EE26ADE50E618D8A402D071
:1012C0001D4A1E2A1F4A202A20BEEBD7205004E1C7
:1012D000040E1F5CD8A0E5D7C10EA0EC0BF0040EE5
:1012E0001D181E10D8A402D0010E01D0000E156EDC
:1012F000166A1200000E1D6E19AE06D0186C191E6B
:10130000D8B0192A010E1D6E1BAE04D01A6C1B1E1C
:10131000D8B01B2A1A501B10D8B418D0010E1C6E5E
:1013200004D0D8901A361B361C2A1BAEFAD71A5096
:10133000185C1B501958D8A004D01A50185E1B50C6
:10134000195AD8901B321A321C2EF1D71D50D8B41E
:1013500004D0186C191ED8B0192A18C018F019C07A
:1013600019F01200116E23D0270E106EF50EE82E24
:10137000FED7102EFCD700F01200030E106E980E50
:10138000E82EFED7102EFCD7B60E00D000D0E82EE7
:10139000FCD700D000D000D01200420EE82EFED7BD
:1013A00000D012001A0EE82EFED700D01200115005
:1013B000010AD8B4D9D7030AD8B4DFD7010AD8B400
:1013C000ECD7070AD8A41200EDD7026E23D0270E5F
:1013D000016EF50EE82EFED7012EFCD700F01200AC
:1013E000030E016E980EE82EFED7012EFCD7B60E26
:1013F00000D000D0E82EFCD700D000D000D01200E2
:10140000420EE82EFED700D012001A0EE82EFED7AC
:1014100000D012000250010AD8B4D9D7030AD8B4B8
:10142000DFD7010AD8B4ECD7070AD8A41200EDD749
:10143000000E156E000E146E12501310D8B41CD08E
:10144000010E166E04D0D89012361336162A13AE3B
:10145000FAD7D890143615361250105C1350115824
:10146000D8A005D01250105E1350115A1480D89095
:1014700013321232162EEDD714C010F015C011F031
:101480001200000E186E000E176E15501724166EFF
:1014900016C0F6FF080EF76E0800F5500009D8B424
:1014A000120015501724166E16C0F6FF080EF76EC0
:1014B0000800F550ABEC0BF0174A182A18BEE5D718
:1014C000185005E1100E175CD8B01200DED71200DC
:1014D000000E096E000E086E06500824076E07C045
:1014E000F6FF080EF76E0800F5500009D8B4120098
:1014F00006500824076E07C0F6FF080EF76E0800B6
:10150000F550B6EC0BF0084A092A09BEE5D7095098
:1015100005E1100E085CD8B01200DED71200136E81
:10152000040E3918D8A417D013C012F0F00E1216FA
:101530008C500F0B12108C6EE7EC0BF0010EB2EC1E
:1015400009F013C012F0123AF00E12168C500F0B65
:1015500012108C6E1200080E3918D8A4120013C095
:101560008CFF1200046E040E3918D8A417D004C0E2
:1015700003F0F00E03168C500F0B03108C6EEEEC84
:101580000BF0010EE5EC09F004C003F0033AF00E95
:1015900003168C500F0B03108C6E1200080E3918B6
:1015A000D8A4120004C08CFF120012501310D8B43B
:1015B00018D0010E146E04D0D89012361336142AA7
:1015C00013AEFAD71250105C13501158D8A004D0A3
:1015D0001250105E1350115AD89013321232142E3A
:1015E000F1D710C010F011C011F01200166E165095
:1015F000080DF350400F65EC0BF0000E186E000E56
:10160000176E15501724D96EDA6ADF50ABEC0BF069
:10161000174A182A18BEF5D7185005E1080E175CAE
:10162000D8B01200EED71200BE0EF66E170EF76E8F
:10163000000EF86E00EE32F010EE10F00900F5CF5B
:10164000EEFFE550E150FAE100EE42F00C0EEE6ADA
:10165000E806FDE14E904E92000EF86E0001A5EFF7
:1016600005F0929A2F0E146EC00EE82EFED7142E9F
:10167000FCD7928A80BAFED7500EE82EFED780BAE9
:10168000FED78FEC0BF08FEC0BF08FEC0BF0496E6C
:101690008FEC0BF08FEC0BF01200000E106E80AA96
:1016A000FED7080EE82EFED700D080AA02D0000E8A
:1016B000106E0E0EE82EFED700D080AA04D0010EC8
:1016C000106E80BAFED710501200116E8D9211C0AC
:1016D0008CFF8D84030EE82EFED700F08D94030E50
:1016E000E82EFED700F0060E106E300EE82EFED764
:1016F000102EFCD700D0120010501202F3CF14F0BD
:10170000F4CF15F010501302F350152611501202A9
:10171000F350152614C010F015C011F01200000E81
:10172000126E080E136E4DEC0BF0116E1250122457
:101730001110126E13061350D8A4F5D712501200D0
:10174000146E8D9214508FEC0AF0E7EC0BF0040E3F
:10175000B2EC09F01200146E8D8214508FEC0AF076
:10176000E7EC0BF0040EB2EC09F01200056E8D826E
:101770000550B2EC0AF0EEEC0BF0040EE5EC09F0CB
:1017800012008D92010E8FEC0AF0E7EC0BF0020EC6
:10179000B2EC09F01200106E1044E846FC0B01098F
:1017A000C26EC282C2A21200FDD78D92010EB2ECAF
:1017B0000AF0EEEC0BF0020EE5EC09F0120030310D
:1017C00032337D000608000A0A0A001F0E008D84CD
:1017D0001A0EE82EFED700D08D9412008D841A0EBA
:1017E000E82EFED700D08D941200106EACA2FED76A
:0617F00010C0ADFF120065
:020000040020DA
:08000000FFFFFFFFFFFFFFFF00
:020000040030CA
:0E00000000091F1EFF8181FF0FC00FE00F409F
:00000001FF
