:0400000007EF00F016
:0A0008004C821AED07F033EF0BF005
:100800000020202020202020202020202020202008
:1008100020202020202020004269656E76656E69C8
:10082000646F00496E636F72726563746F0050612C
:100830007373776F72643A0054656D703A00447553
:0508400074793A00008C
:1008460016C008F017C009F0000E0B6E0A0E0A6EED
:100856009BEC0BF0185008241C6E195009201D6ED5
:1008660047C02AF02B6A000E296E430E286EBFEC95
:100876000BF03ED047C02AF02B6A000E296E430EBD
:1008860035D0110E47242A6E2B6A010E2B22000E3C
:10089600296E4B0E2BD04750090DF3CF08F0F4CF3D
:1008A60009F0000E0B6E050E0A6E42EC09F0EC0E16
:1008B60008242A6E010E09202B6E000E296E520E98
:1008C60015D04750090DF3CF08F0F4CF09F0000E0C
:1008D6000B6E050E0A6E42EC09F0200E08242A6EF5
:1008E600000E09202B6E000E296E460E286E15D0BE
:1008F6001CC01AF01DC01BF01B50000AD8A40DD056
:100906001A50000AD8B4B6D7010AD8B4BAD70B0A17
:10091600D8B4C1D7010AD8B4D4D7540E0DEC0CF014
:10092600650E0DEC0CF06D0E0DEC0CF0700E0DEC72
:100936000CF03A0E0DEC0CF0200E0DEC0CF0380E0F
:100946000D6E87EC0AF02AC008F02BC009F0000EE5
:100956000B6E640E0A6E5EEC0AF008500910D8B4ED
:100966002AD02AC008F02BC009F0000E0B6E640EC8
:100976000A6E5EEC0AF00850300F0DEC0CF02AC03F
:1009860008F02BC009F0000E0B6E640E0A6E5EECCA
:100996000AF00850300FCCEC0BF02AC008F02BC040
:1009A60009F0000E0B6E640E0A6EF4EC0AF008C035
:1009B6002AF009C02BF02AC008F02BC009F0000E5F
:1009C6000B6E0A0E0A6E5EEC0AF00850300F0DEC44
:1009D6000CF02AC008F02BC009F0000E0B6E0A0EB0
:1009E6000A6EF4EC0AF00850300F0DEC0CF0A70E6E
:1009F6000DEC0CF028500DEC0CF0200E0DEC0CF06C
:100A06000A0E0DEC0CF0440E0DEC0CF0750E0DEC10
:100A16000CF0740E0DEC0CF0790E0DEC0CF03A0E99
:100A26000DEC0CF0200E0DEC0CF0BD50D8B482A4E9
:100A360003D0310E0DEC0CF0BD50D8A405D0000E3D
:100A46001F6E300E1E6E20D0000E0B6E7E0E0A6ECE
:100A5600BE50640DF3CF08F0F4CF09F042EC09F074
:100A660008C026F009C027F026C008F027C009F004
:100A7600000E0B6E0A0E0A6E42EC09F0300E0824C8
:100A86001E6E000E09201F6E1E500DEC0CF0BD50A0
:100A9600D8A405D0000E216E300E206E1CD0000E9C
:100AA6000B6E7E0E0A6EBE50640DF3CF08F0F4CFC7
:100AB60009F042EC09F008C010F009C011F0000E70
:100AC600136E0A0E126EC0EC09F0300E1024206E62
:100AD600000E1120216E20500DEC0CF0200E0DECB6
:100AE6000CF0250E0DEC0CF00A0E0DEC0CF0200EA1
:100AF6000DEC0CF02AC008F02BC009F0000E0B6EAE
:100B06000A0E0A6E5EEC0AF00850300FCCEC0BF0C1
:100B16002AC008F02BC009F0000E0B6E0A0E0A6EF2
:100B2600F4EC0AF00850300FCCEC0BF02850CCEC6B
:100B36000BF0C00ED7EC0BF03E0E0D6E87EC0AF0F4
:100B4600BD50D8B482A403D0310ECCEC0BF0BD500E
:100B5600D8A405D0000E236E300E226E20D0000ED3
:100B66000B6E7E0E0A6EBE50640DF3CF08F0F4CF06
:100B760009F042EC09F008C026F009C027F026C0AB
:100B860008F027C009F0000E0B6E0A0E0A6E42EC42
:100B960009F0300E0824226E000E0920236E225022
:100BA600CCEC0BF0BD50D8A405D0000E256E300E4F
:100BB600246E1CD0000E0B6E7E0E0A6EBE50640DA7
:100BC600F3CF08F0F4CF09F042EC09F008C010F0BA
:100BD60009C011F0000E136E0A0E126EC0EC09F079
:100BE600300E1024246E000E1120256E2450CCECFD
:100BF6000BF0250ECCEC0BF01200000E946EF60EE8
:100C0600D36E000E956E968096949692F4EC08F04C
:100C1600BFEC0BF0220E926E010EC26E0C0EC16E70
:100C2600880EC06EF00E936EF19EF290F286030E61
:100C3600D56EF294FB0ED76E1E0ED66EF28AD58E48
:100C460094947D0ECB6E000EBE6E020ECA6E0C0E16
:100C5600BD6E000ECC6ECA84948C948E200EAC6E43
:100C6600900EAB6E0C0EAF6E928A6F866D96949256
:100C7600EC0ECF6E780ECE6EB00ECD6EEC0EBC6E58
:100C8600F50EBB6E090EBA6E9E909D80F28CCD80DD
:100C9600F28E0B0E2D6E260E2C6E5E0EE82EFED7F5
:100CA6002C2EFCD72D2EFAD7BFEC0BF0380E0D6E7E
:100CB600000E15EC0BF0820ED7EC0BF0000ECCEC10
:100CC6000BF0180E0D6E87EC0AF0000ECCEC0BF054
:100CD600C70ED7EC0BF0100E2D6E390E2C6E0E0EC5
:100CE600E82EFED72C2EFCD72D2EFAD7800ED7EC69
:100CF6000BF0070E0D6E87EC0AF0800ED7EC0BF0AA
:100D06002E0E0D6E87EC0AF05BD0000E436E010EC0
:100D1600426E000E2F6E000E2E6E40504110D8B45B
:100D2600FCD7000E416E000E406E2E50480FD96E55
:100D3600DA6A46C0DFFF2E4A2F2A2FBEEED72F5083
:100D460004E1040E2E5CD8A0E8D7000E436E000E18
:100D5600426E480E0D6E84EC09F00D500E10D8B49C
:100D660016D0010E0D6E87EC0AF0C10ED7EC0BF013
:100D7600000ECCEC0BF00B0E2D6E260E2C6E5E0EBE
:100D8600E82EFED72C2EFCD72D2EFAD719D0C10E61
:100D9600D7EC0BF0230E0D6E87EC0AF00B0E2D6EC2
:100DA600260E2C6E5E0EE82EFED72C2EFCD72D2E90
:100DB600FAD7C10ED7EC0BF0010E0D6E87EC0AF0D8
:100DC600480E0D6E84EC09F00D500E10D8B49DD768
:100DD600BFEC0BF0060E2D6E130E2C6EAE0EE82E2B
:100DE600FED72C2EFCD72D2EFAD7060E2D6E130EFF
:100DF6002C6EAE0EE82EFED72C2EFCD72D2EFAD753
:100E060050EC0BF0000E176E000E166E000E196EEB
:100E1600000E186E23EC04F047C008F0096AA9EC2E
:100E260007F0000EEDEC0BF023EC08F0DED7060021
:100E3600F2A418D0F294FB0ED76E1E0ED66E84A0C6
:100E460011D0000EBD6E8294030E076E080E066E5C
:100E5600770EE82EFED7062EFCD7072EFAD700F01F
:100E66000300FFD7F2A061D0F00E8118D8B455D098
:100E760042044310D8A451D0000E466EFE0E8A6E70
:100E860081B802D0100E41D081BA02D00C0E3DD0EE
:100E960081BC02D0080E39D081BE02D0040E35D0F6
:100EA600FD0E8A6E81B802D00F0E2FD081BA02D005
:100EB6000B0E2BD081BC02D0070E27D081BE02D0EC
:100EC600030E23D0FB0E8A6E81B802D00E0E1DD003
:100ED60081BA02D00A0E19D081BC02D0060E15D0F6
:100EE60081BE02D0020E11D0F70E8A6E81B802D0F2
:100EF6000D0E0BD081BA02D0090E07D081BC02D0EC
:100F0600050E03D081BE02D0010E466EF00E8A6E2B
:100F16008DEC08F04650E2EC0BF0F290820E066E75
:100F2600DE0EE82EFED7062EFCD79EA00DD09E9094
:100F3600EC0ECF6E780ECE6E780E3424BB6EEC0EB1
:100F46003520BC6E090EBA6E4C921100095008E1AC
:100F5600170E085CD8B004D0000EBD6E8294120045
:100F6600095004E1170E085CD8A00BD0095009E11E
:100F7600190E085CD8B005D00C0EBD6E130EBE6EF1
:100F86001200095004E1190E085CD8A00BD00950D4
:100F960009E11C0E085CD8B005D00C0EBD6E260EFD
:100FA600BE6E1200095004E11C0E085CD8A00BD0DE
:100FB600095009E11F0E085CD8B005D00C0EBD6EB5
:100FC600390EBE6E1200095004E11F0E085CD8A04F
:100FD6000BD0095009E1220E085CD8B005D00C0EE2
:100FE600BD6E4C0EBE6E1200095004E1220E085C66
:100FF600D8A00BD0095009E1250E085CD8B005D061
:101006000C0EBD6E5F0EBE6E1200095004E1250E79
:10101600085CD8A00BD0095009E1280E085CD8B0AE
:1010260005D00C0EBD6E710EBE6E1200095004E1A5
:10103600280E085CD8A01200000EBD6E8284120035
:10104600000EC35C010EC458D8B002D0010E01D008
:10105600000E086EC350C410D8B402D0010E01D0E1
:10106600000E0814E8A005D0000E356E7D0E346E15
:101076001200000EC35C020EC458D8B002D0010E96
:1010860001D0000E086E000EC35C010EC458D8A035
:1010960002D0010E01D0000E0814E8A005D0010E02
:1010A600356E240E346E12007F0EC35C070EC458D4
:1010B600D8B002D0010E01D0000E086E000EC35C3F
:1010C600020EC458D8A002D0010E01D0000E08149A
:1010D600E8A005D0010E356ECA0E346E1200FC0E65
:1010E600C35C130EC458D8B002D0010E01D0000E56
:1010F600086E7F0EC35C070EC458D8A002D0010E3E
:1011060001D0000E0814E8A01200020E356E710E12
:10111600346E1200000E416E010E406E30D0310E5C
:10112600466E1200320E466E1200330E466E1200E6
:101136002B0E466E1200340E466E1200350E466EAB
:101146001200360E466E12002D0E466E1200370E37
:10115600466E1200380E466E1200390E466E1200AA
:10116600580E466E1200420E466E1200300E466E45
:1011760012003D0E466E12002F0E466E12004650AD
:10118600010AD8B4CCD7030AD8B4CCD7010AD8B44C
:10119600CCD7070AD8B4CCD7010AD8B4CCD7030A1F
:1011A600D8B4CCD7010AD8B4CCD70F0AD8B4CCD788
:1011B600010AD8B4CCD7030AD8B4CCD7010AD8B41C
:1011C600CCD7070AD8B4CCD7010AD8B4CCD7030AEF
:1011D600D8B4CCD7010AD8B4CCD71F0AD8A41200E9
:1011E600CBD78D92040E3718D8A404D08C500F0B91
:1011F600300901D03F0E8C6EFFEC0BF0010EF8ECBF
:1012060009F0040E3718D8A404D08C500F0B3009FF
:1012160001D03F0E8C6EFFEC0BF0030EF8EC09F0DC
:10122600040E3718D8A404D08C500F0B300901D007
:101236003F0E8C6EFFEC0BF0040EF8EC09F0040E7A
:101246003718D8A411D08C500F0B20098C6EFFECE8
:101256000BF0040EF8EC09F02F0EAEEC0AF0FFECE2
:101266000BF0040EF8EC09F0BFEC0BF00F0EAEEC31
:101276000AF0FFEC0BF0040EF8EC09F01200000E79
:101286000D6E0BAE06D00A6C0B1ED8B00B2A010EE3
:101296000D6E09AE06D0086C091ED8B0092A010EDB
:1012A6000D1A000E0F6E000E0E6E0A500B10D8B4FB
:1012B6001CD0010E0C6E04D0D8900A360B360C2AC0
:1012C6000BAEFAD7D8900E360F360A50085C0B5084
:1012D6000958D8A005D00A50085E0B50095A0E804E
:1012E600D8900B320A320C2EEDD70D50D8B404D05C
:1012F6000E6C0F1ED8B00F2A0EC008F00FC009F0F2
:10130600120030C011F031C012F032C013F033C0F9
:1013160014F0000E166E000E156EC10ED7EC0BF013
:10132600000E186E000E176E2A0ECCEC0BF017503E
:10133600110FD96EDA6A0D501724E16EE26ADE509B
:10134600E618D8A402D0154A162A174A182A18BE33
:10135600EBD7185004E1040E175CD8A0E5D7C10EF0
:10136600D7EC0BF0040E15181610D8A402D0010EF7
:1013760001D0000E0D6E0E6A1200000E156E11AE33
:1013860006D0106C111ED8B0112A010E156E13AEC0
:1013960004D0126C131ED8B0132A12501310D8B4EE
:1013A60018D0010E146E04D0D89012361336142AB3
:1013B60013AEFAD71250105C13501158D8A004D0AF
:1013C6001250105E1350115AD89013321232142E46
:1013D600F1D71550D8B404D0106C111ED8B0112A0C
:1013E60010C010F011C011F01200096E23D0270EA4
:1013F600086EF50EE82EFED7082EFCD700F0120078
:10140600030E086E980EE82EFED7082EFCD7B60EF1
:1014160000D000D0E82EFCD700D000D000D01200BB
:10142600420EE82EFED700D012001A0EE82EFED786
:1014360000D012000950010AD8B4D9D7030AD8B48B
:10144600DFD7010AD8B4ECD7070AD8A41200EDD723
:10145600026E23D0270E016EF50EE82EFED7012E62
:10146600FCD700F01200030E016E980EE82EFED790
:10147600012EFCD7B60E00D000D0E82EFCD700D047
:1014860000D000D01200420EE82EFED700D0120087
:101496001A0EE82EFED700D012000250010AD8B468
:1014A600D9D7030AD8B4DFD7010AD8B4ECD7070ACC
:1014B600D8A41200EDD7000E0D6E000E0C6E0A5069
:1014C6000B10D8B41CD0010E0E6E04D0D8900A367C
:1014D6000B360E2A0BAEFAD7D8900C360D360A50BC
:1014E600085C0B500958D8A005D00A50085E0B506E
:1014F600095A0C80D8900B320A320E2EEDD70CC04A
:1015060008F00DC009F01200000E106E000E0F6EEE
:101516000D500F240E6E0EC0F6FF080EF76E080073
:10152600F5500009D8B412000D500F240E6E0EC0EF
:10153600F6FF080EF76E0800F550CCEC0BF00F4ADC
:10154600102A10BEE5D7105005E1100E0F5CD8B07A
:101556001200DED712000B6E040E3718D8A417D06F
:101566000BC00AF0F00E0A168C500F0B0A108C6E88
:10157600FFEC0BF0010EF8EC09F00BC00AF00A3A8A
:10158600F00E0A168C500F0B0A108C6E1200080E05
:101596003718D8A412000BC08CFF1200046E040E7C
:1015A6003718D8A417D004C003F0F00E03168C50D9
:1015B6000F0B03108C6E06EC0CF0010E2BEC0AF0F0
:1015C60004C003F0033AF00E03168C500F0B031001
:1015D6008C6E1200080E3718D8A4120004C08CFFB7
:1015E60012000A500B10D8B418D0010E0C6E04D09D
:1015F600D8900A360B360C2A0BAEFAD70A50085C7E
:101606000B500958D8A004D00A50085E0B50095A4E
:10161600D8900B320A320C2EF1D708C008F009C058
:1016260009F012000E6E0E50080DF350400F84ECB8
:101636000BF0000E106E000E0F6E0D500F24D96EBB
:10164600DA6ADF50CCEC0BF00F4A102A10BEF5D741
:10165600105005E1080E0F5CD8B01200EED712004C
:10166600EE0EF66E170EF76E000EF86E00EE30F008
:1016760010EE10F00900F5CFEEFFE550E150FAE16B
:1016860000EE40F00C0EEE6AE806FDE14C904C923E
:10169600000EF86E000100EF06F0929A2F0E0C6E07
:1016A600C00EE82EFED70C2EFCD7928A80BAFED743
:1016B600500EE82EFED780BAFED7AEEC0BF0AEEC9D
:1016C6000BF0AEEC0BF0476EAEEC0BF0AEEC0BF0A5
:1016D6001200000E086E80AAFED7080EE82EFED76E
:1016E60000D080AA02D0000E086E0E0EE82EFED79D
:1016F60000D080AA04D0010E086E80BAFED708502A
:101706001200096E8D9209C08CFF8D84030EE82E9F
:10171600FED700F08D94030EE82EFED700F0060EDD
:10172600086E300EE82EFED7082EFCD700D0120029
:1017360008500A02F3CF0CF0F4CF0DF008500B025C
:10174600F3500D2609500A02F3500D260CC008F07E
:101756000DC009F01200000E0A6E080E0B6E6CEC3E
:101766000BF0096E0A500A2409100A6E0B060B507C
:10177600D8A4F5D70A5012008D92010EAEEC0AF0ED
:10178600FFEC0BF0020EF8EC09F0800ED7EC0BF034
:1017960012000C6E8D820C50AEEC0AF0FFEC0BF0D2
:1017A600040EF8EC09F012000C6E8D920C50AEECA3
:1017B6000AF0FFEC0BF0040EF8EC09F01200056ECF
:1017C6008D820550D1EC0AF006EC0CF0040E2BECE1
:1017D6000AF01200086E0844E846FC0B0109C26EC6
:1017E600C282C2A21200FDD7303132337D00060814
:1017F600000A0A0A001F0E008D841A0EE82EFED774
:1018060000D08D9412008D841A0EE82EFED700D0DB
:101816008D941200086EACA2FED708C0ADFF120070
:020000040020DA
:08000000FFFFFFFFFFFFFFFF00
:020000040030CA
:0E00000000091F1EFF8181FF0FC00FE00F409F
:00000001FF
